:100000000C9434000C946E000C946E000C946E00F2
:100010000C946E000C946E000C946E000C946E00A8
:100020000C946E000C946E000C946E000C946E0098
:100030000C946E000C946E000C946E000C946E0088
:100040000C946E000C946E000C946E000C946E0078
:100050000C946E000C946E000C946E000C946E0068
:100060000C946E000C946E0011241FBECFEFD8E0EC
:10007000DEBFCDBF0E9440000C946300F894FFCF18
:10008000219A2098289A0E945800EAE7F0E0A8E711
:10009000B0E0808180648083808186FDFDCF8D917A
:1000A0009C911197189B02C0299AF3CF2998F1CF00
:1000B000ECE7F0E0808180648083EAE7F0E0808113
:0600C000876880830895AB
:1000C600EC010E9473000E947200CE010E9474002F
:0600D600CE010E94700043
:0400DC000C94000080
:0400E0000E943E003C
:0200E40008957D
:0200E60008957B
:0200E800089579
:00000001FF
