:100000000C9434000C947C000C947C000C947C00C8
:100010000C947C000C947C000C947C000C947C0070
:100020000C947C000C947C000C947C000C947C0060
:100030000C947C000C9440000C947C000C947C008C
:100040000C947C000C947C000C947C000C947C0040
:100050000C947C000C947C000C947C000C947C0030
:100060000C947C000C947C0011241FBECFEFD8E0D0
:10007000DEBFCDBF0E9475000C946A00F894FFCFDC
:100080008F938FB78F939F934C990BC085E997EE11
:10009000909385008093840098B181E0892788B986
:0E00A00001C040989F918F918FBF8F9118954E
:1000AE0010928000E1E8F0E080818460808385E931
:1000BE0097EE9093850080938400EFE6F0E08081C8
:0600CE00816080830895AB
:1000D400EC010E9481000E948000CE010E948200F7
:0600E400CE010E947E0027
:0E00EA005C9A389A40980E9457007894FFCF95
:0400F8000C94000064
:0400FC000E943E0020
:02010000089560
:0201020008955E
:0201040008955C
:00000001FF
