:100000000C9434000C946D000C946D000C946D00F5
:100010000C946D000C946D000C946D000C946D00AC
:100020000C946D000C946D000C946D000C946D009C
:100030000C946D000C946D000C946D000C946D008C
:100040000C946D000C946D000C946D000C946D007C
:100050000C946D000C946D000C946D000C946D006C
:100060000C946D000C946D0011241FBECFEFD8E0EE
:10007000DEBFCDBF0E9440000C945B00F894FFCF20
:10008000559A5D980E94660080E088BDEFE5FAEE23
:100090003197F1F700C00000865F8430B1F78FEF31
:1000A00088BDEFE5FAEE3197F1F700C000008A5005
:0600B0008B3FB1F7E9CF20
:1000B600EC010E9472000E947100CE010E94730042
:0600C600CE010E946F0054
:0E00CC0084B5836284BD85B5836085BD0895CB
:0400DA000C94000082
:0400DE000E943E003E
:0200E20008957F
:0200E40008957D
:0200E60008957B
:00000001FF
