:100000000C9434000C943E020C943E020C943E027C
:100010000C943E020C943E020C943E020C943E0260
:100020000C943E020C943E020C943E020C943E0250
:100030000C943E020C943E020C943E020C943E0240
:100040000C943E020C943E020C943E020C943E0230
:100050000C943E020C943E020C943E020C943E0220
:100060000C943E020C943E0211241FBECFEFD8E048
:10007000DEBFCDBF0E9419010C940D02F894FFCF92
:1000800010C00E941F0258F00E94180240F029F48C
:100090005F3F29F00C942D0251110C9427020C940F
:1000A0003B020E94DA0168F39923B1F3552391F3DF
:1000B000951B550BBB27AA2762177307840738F0D7
:1000C0009F5F5F4F220F331F441FAA1FA9F335D034
:1000D0000E2E3AF0E0E832D091505040E695001CE8
:1000E000CAF72BD0FE2F29D0660F771F881FBB1FA2
:1000F000261737074807AB07B0E809F0BB0B802D80
:10010000BF01FF2793585F4F3AF09E3F510578F0AB
:100110000C942D020C9427025F3FE4F3983ED4F335
:10012000869577956795B795F7959F5FC9F7880F7F
:10013000911D9695879597F90895E1E0660F771FD1
:10014000881FBB1F621773078407BA0720F0621B62
:0E015000730B840BBA0BEE1F88F7E095089531
:10015E000FC00E94180238F00E941F0220F0952353
:10016E0011F00C942D020C943B0211240C942702D6
:10017E000E94DA0170F3959FC1F3950F50E0551F61
:10018E00629FF001729FBB27F00DB11D639FAA27DE
:10019E00F00DB11DAA1F649F6627B00DA11D661F2D
:1001AE00829F2227B00DA11D621F739FB00DA11D4E
:1001BE00621F839FA00D611D221F749F3327A00D08
:1001CE00611D231F849F600D211D822F762F6A2FA4
:1001DE0011249F5750409AF0F1F088234AF0EE0F09
:1001EE00FF1FBB1F661F771F881F91505040A9F736
:1001FE009E3F510580F00C942D020C9427025F3F18
:10020E00E4F3983ED4F3869577956795B795F79571
:10021E00E7959F5FC1F7FE2B880F911D96958795E9
:04022E0097F908959F
:10023200219A29988FEF8AB910928000E1E8F0E0C4
:10024200808181688083C1E8D0E00F2EF4E8EF2E30
:10025200F12CF02D06E810E0299A25E32A95F1F712
:1002620000002998888180648883B59BFECFB59A67
:10027200F7011182108288818F7D8883B59BFECF22
:10028200B59AF8016081718180E090E00E946E0170
:1002920020E034E244E759E40E94330220E030E0F7
:1002A2004AEA53E40E94370220E030E040E05FE394
:1002B2000E94370220E030E048EC52E40E9437020C
:1002C2000E94AB016BB9FFEF29E688E1F1502040B3
:0A02D2008040E1F700C00000BFCF3C
:1002DC00E89409C097FB3EF49095809570956195D4
:1002EC007F4F8F4F9F4F9923A9F0F92F96E9BB278A
:1002FC009395F695879577956795B795F111F8CF06
:10030C00FAF4BB0F11F460FF1BC06F5F7F4F8F4F70
:10031C009F4F16C0882311F096E911C0772321F066
:10032C009EE8872F762F05C0662371F096E8862FFE
:10033C0070E060E02AF09A95660F771F881FDAF755
:0A034C00880F9695879597F908959C
:100356000E94E20188F09F5798F0B92F9927B7516C
:10036600B0F0E1F0660F771F881F991F1AF0BA9553
:10037600C9F714C0B13091F00E942602B1E0089589
:100386000C942602672F782F8827B85F39F0B93F7B
:10039600CCF3869577956795B395D9F73EF4909506
:0E03A6008095709561957F4F8F4F9F4F089502
:1003B40057FD9058440F551F59F05F3F71F0479512
:1003C400880F97FB991F61F09F3F79F087950895F7
:1003D400121613061406551FF2CF4695F1DF08C016
:1003E400161617061806991FF1CF86957105610533
:0403F40008940895CC
:1003F800092E0394000C11F4882352F0BB0F40F42B
:10040800BF2B11F460FF04C06F5F7F4F8F4F9F4F6A
:02041800089545
:10041A00EC010E9443020E944202CE010E94440261
:06042A00CE010E94400219
:0E04300000240A9416161706180609060895E9
:0E043E0000240A9412161306140605060895EB
:0E044C00E894BB2766277727CB0197F9089520
:0C045A0097F99F6780E870E060E008956B
:080466000E9440000C94FC010F
:08046E000E94AF000C94FC0198
:060476009FEF80EC0895E9
:04047C000C940000DC
:040480000E943E0098
:020484000895D9
:020486000895D7
:020488000895D5
:00000001FF
