:100000000C9434000C94B1000C94B1000C94B10029
:100010000C94B1000C94B1000C94B1000C94B1009C
:100020000C94B1000C94B1000C94B1000C94B1008C
:100030000C94B1000C94B1000C94B1000C94B1007C
:100040000C94B1000C94B1000C94B1000C94B1006C
:100050000C94B1000C94B1000C94B1000C94B1005C
:100060000C94B1000C94B10011241FBECFEFD8E066
:10007000DEBFCDBF0E9443000C94A600F894FFCFD2
:0600800048656C6C6F0086
:10008600CF92DF92EF920E946D008FEC97E001977E
:10009600F1F700C000000F2EF1E8CF2EF0E0DF2EC2
:1000A600F0E0EF2EF02D88E40E9494009FEFC91A2D
:1000B600D90AE90AAE2DC6010197A109FC0184916E
:1000C600A7FD80818111F0CF80E090E0EF90DF9076
:0400D600CF9008952A
:1000DA008FEF84B9529A5A98519A5998509A5898C7
:1000EA0088E30E9482008EE00E94820081E00E94E2
:0A00FA00820084E10E948200089554
:100104005898599885B95A9A87EE93E00197F1F770
:1001140000C000005A988FEC97E00197F1F700C0F7
:04012400000008953A
:10012800589A599885B95A9A87EE93E00197F1F74A
:1001380000C000005A988FEC97E00197F1F700C0D3
:040148000000089516
:10014C00EC010E94B6000E94B500CE010E94B700DF
:06015C00CE010E94B30079
:040162000C940000F9
:040166000E943E00B5
:02016A000895F6
:02016C000895F4
:02016E000895F2
:00000001FF
